:100000000C9434000C943E000C943E000C943E0082
:100010000C943E000C943E000C943E000C943E0068
:100020000C943E000C943E000C943E000C943E0058
:100030000C943E000C943E000C943E000C943E0048
:100040000C943E000C943E000C943E000C943E0038
:100050000C943E000C943E000C943E000C943E0028
:100060000C943E000C943E0011241FBECFEFD8E04C
:10007000DEBFCDBF0E9440000C9461000C940000D4
:100080003CE33AB930E234B98823A9F02223B9F02D
:100090009923A9F080E08BB98BB18BB98BB18BB967
:1000A0008BB18BB989B1817099B1917023B12170F5
:1000B00033B18111EBCF9111EDCF222359F380E2BF
:0600C000EACFF894FFCF27
:00000001FF
