:100000000C9434000C943E000C943E000C943E0082
:100010000C943E000C943E000C943E000C943E0068
:100020000C943E000C943E000C943E000C943E0058
:100030000C943E000C943E000C943E000C943E0048
:100040000C943E000C943E000C943E000C943E0038
:100050000C943E000C943E000C943E000C943E0028
:100060000C943E000C943E0011241FBECFEFD8E04C
:10007000DEBFCDBF0E9440000C94B5000C94000080
:100080008CE38AB980E284B980EC8BB983E085B9CE
:1000900040E050E030E090E070E261E075B92FEFB1
:1000A00083ECE9E021508040E040E1F700C000002F
:1000B00091112AC0311140C020E0511131C080E0BF
:1000C00041112CC090E09BB99BB1892B8BB98BB1AE
:1000D000822B8BB98BB18BB949B146FB442740F9D0
:1000E00059B1551F5527551F33B1317093B19695AE
:1000F000917015B82FEF83ECE9E021508040E0408B
:10010000E1F700C00000CACF3323B1F020E055234F
:1001100039F080E09923B9F24111D4CF94E0D3CFE4
:10012000842F8627880F880F880F911114C03111F2
:10013000C9CF5111C7CFC4CF842F8627282F22952E
:10014000207F91110FC0332309F4B7CF5111E8CFAD
:1001500080E090E0B8CF332309F4B4CF552309F4FD
:0E016000B1CFDACF332391F3D2CFF894FFCF93
:00000001FF
