:100000000C9434000C943E000C943E000C943E0082
:100010000C943E000C943E000C943E000C943E0068
:100020000C943E000C943E000C943E000C943E0058
:100030000C943E000C943E000C943E000C943E0048
:100040000C943E000C943E000C943E000C943E0038
:100050000C943E000C943E000C943E000C943E0028
:100060000C943E000C943E0011241FBECFEFD8E04C
:10007000DEBFCDBF0E9440000C945D000C940000D8
:1000800034E03AB930E234B9882321F0911113C039
:10009000222389F080E28BB98BB18BB98BB18BB9FC
:1000A0008BB18BB989B1982F917089B1282F2170AC
:0E00B00083B18170E9CF80E0EECFF894FFCFEE
:00000001FF
