:100000000C9434000C943E000C943E000C943E0082
:100010000C943E000C943E000C943E000C943E0068
:100020000C943E000C943E000C943E000C943E0058
:100030000C943E000C943E000C943E000C943E0048
:100040000C943E000C943E000C943E000C943E0038
:100050000C943E000C943E000C943E000C943E0028
:100060000C943E000C943E0011241FBECFEFD8E04C
:10007000DEBFCDBF0E9440000C9462000C940000D3
:100080008CE38AB980E284B920E294E025B93FEF9D
:1000900043EC89E0315040408040E1F700C000006F
:1000A0009BB98BB18BB98BB18BB98BB18BB915B8AF
:1000B0003FEF43EC89E0315040408040E1F700C021
:0800C0000000E4CFF894FFCF2B
:00000001FF
