:100000000C9434000C943E000C943E000C943E0082
:100010000C943E000C943E000C943E000C943E0068
:100020000C943E000C943E000C943E000C943E0058
:100030000C943E000C943E000C943E000C943E0048
:100040000C943E000C943E000C943E000C943E0038
:100050000C943E000C943E000C943E000C943E0028
:100060000C943E000C943E0011241FBECFEFD8E04C
:10007000DEBFCDBF0E9440000C9469000C940000CC
:1000800044E04AB940E244B98823E9F0911108C03C
:10009000211106C080E205C03323E1F39923D1F397
:1000A00080E08BB98BB18BB98BB18BB98BB18BB92C
:1000B00089B1282F217089B1817093B1917033B1CA
:1000C00031708111E3CF222339F3992349F380E280
:0600D000E8CFF894FFCF19
:00000001FF
